:020000040000FA
:020000000D28C9
:10000800DE00030E8312A4000408A5000A08A60057
:10001800F1290E288312C401C501C60183012329D1
:100028008312A2007A28051107108710071187117B
:10003800071287168511A2280515071087100715BE
:100048008715071687168511A2280511071087142A
:1000580007118711071687128511A22805110710A5
:10006800871007118715071687128511A22805150D
:100078000710871007158715071287128511A22800
:1000880005110714871007118715071287128511A4
:10009800A228051107148710071187110712871264
:1000A8008511A2280511071087100715871507164F
:1000B80087168511A22805110710871007118711C7
:1000C800071287128511A22805110710871007113A
:1000D8008715071287128511A2280511071487149E
:1000E80007118711071287128511A2282208A0007C
:1000F800A1012108003A0319822871282008003A32
:1001080003191728013A03192028033A0319292843
:10011800013A03193228073A03193B28013A03190F
:100128004428033A03194D28013A031956280F3A6F
:1001380003195F28013A03196828712808008312F7
:10014800B201B3012D082E040319AB28AC28E3280B
:10015800B401B40ABA2801300310AD0DAE0DFF3E4C
:10016800031DB0280130B1003108B407AE1FBD2807
:10017800BE28AF2801300310B20DB30DFF3E031D9A
:10018800BF282E083002031DCB282D082F02031C80
:10019800CE28CF28D6282D08AF022E08031CB0037E
:1001A800B002321401300310AE0CAD0CFF3E031D3B
:1001B800D7280130B402031DE228E328BE283308FB
:1001C800AE003208AD000800831235083604031962
:1001D800EE28EF281E29BA01BA0AFD2801300310BB
:1001E800B50DB60DFF3E031DF3280130B9003908DF
:1001F800BA07B61F00290129F22836083802031D5C
:10020800072935083702031C0A290B291129350843
:10021800B7023608031CB803B80201300310B60C45
:10022800B50CFF3E031D12290130BA02031D1D291A
:100238001E2901293808B6003708B50008000A2227
:100248001A2224220030592183122808C1002708C5
:10025800C0000930AD000030AE004108A8004008D9
:10026800A7000530A9000030AA00AA218312280897
:10027800B0002708AF00A32083122D08BE002E0867
:10028800BF00BE0EBF0EF030BF053E080F39BF04D9
:10029800F030BE053E08C2003F08C3004308BC005A
:1002A8004208BB00822125290D288312AB00C530E6
:1002B800A90029089F052B08A90002300310A90DE1
:1002C800FF3E031D62290310290DAA002A089F0476
:1002D8000330AA009730A900A90B7029AA0B70292E
:1002E800752983129F149F187A297B2977291E085C
:1002F800A80083161E088312A7000800E83083129E
:10030800AD000330AE003C08B0003B08AF00A320AE
:1003180083122D08BD003D08C4000A30B500003026
:10032800B6006430AD000030AE003C08B0003B08B9
:10033800AF00A32083122E08B8002D08B700E820CC
:1003480083123508BD003D08C50008008312AB01C3
:10035800AC01271CB029B129B7292908AB07031814
:10036800AC0A2A08AC0701300310A90DAA0DFF3EFC
:10037800031DB82901300310A80CA70CFF3E031D6C
:10038800BF2927082804031DCA29CB29AD292C0811
:10039800A8002B08A700080083124608031DD529CA
:1003A800D629DB2905164408142083128512460332
:1003B800031DDF29E029E529851645081420831245
:1003C80005120130A3002308C60702304602031CA9
:1003D800EE29EF29F029C60108008B130B1DF5291A
:1003E800F629FC298B128B12D0210B118B160B11BD
:1003F8008B178B16B0308312810026088A002508D7
:100408008400240E8300DE0E5E0E09000130831680
:1004180085008701FF3083128500FF308700013097
:1004280083169100073083129900080086308316DE
:100438008100AF30831281008B170B178B160800D1
:0C044800813083129F0083169F01080082
:02400E00943FDD
:00000001FF
